:020000040801F1
:1000000000000220D5CC0108A1540108A554010824
:10001000A9540108AD540108B1540108D1CC01081C
:10002000D1CC0108D1CC0108D1CC0108B5660108BA
:10003000D1CC0108D1CC0108D9660108ED4C0108EA
:10004000D1CC0108D1CC0108D1CC0108D1CC010818
:10005000D1CC0108D1CC0108454801084B48010822
:1000600051480108574801085D480108D146010878
:10007000E1460108F146010801470108114701085E
:100080002147010831470108D1CC0108D1CC010832
:10009000D1CC0108D1CC0108D1CC010863480108BA
:1000A0007D5001088950010895500108A1500108B0
:1000B000AD500108B9500108C5500108514B010865
:1000C000694B01085D4B0108754B0108D1CC010853
:1000D000D1CC010835530108415301084D530108A3
:1000E0006B480108D1CC0108D1CC0108F5500108BA
:1000F000015101080D51010819510108414701083A
:10010000D1CC0108D1CC0108D1500108D1CC0108D3
:100110005953010865530108DD500108E9500108F1
:1001200051470108614701087147010881470108EB
:1001300091470108D1CC0108D1CC0108D1CC0108EC
:10014000D1CC0108D1CC0108D1CC0108756A0108D5
:10015000A1470108B1470108C1470108D1CC0108F6
:10016000D1CC0108D1CC0108D1CC0108D1CC0108F7
:10017000D1CC0108D1CC0108D1CC0108D1CC0108E7
:10018000D1CC0108D1CC01080B4BDA68D1030DD4D6
:10019000DA68D2060CD4DA6812F0EF0F0AD1DB6805
:1001A00013F0020F14BF0C20052070470120704788
:1001B000032070470B207047003C024013B50446F3
:1001C000FFF7E2FF01280FD164B100230193FF2361
:1001D0000193019B13B1019B013BF9E7FFF7D4FFAA
:1001E000013CEFE7062002E0002C08BF062002B029
:1001F00010BD000070B5064641B1012908D00229A2
:100200000CBF4FF400754FF4407503E00D4601E05C
:100210004FF4807540F6FF70FFF7D0FF052820D11E
:10022000104C236923F44073236121692943216120
:10023000236923F0F8032361236943F002031E437B
:100240002661236943F48033236140F6FF70FFF792
:10025000B5FF236923F002032361236923F0F80328
:10026000236170BD003C024000F17840B0F5803F52
:1002700004DA4FF4804390FBF3F005E0B0F5003F63
:10028000A6BF401404300420C0000321FFF7B2BF12
:10029000134B00F178429A4270B505460E461CD8C1
:1002A0001F20FFF78BFF052818D10E4C236923F47C
:1002B00040732361236943F480732361236943F00E
:1002C000010323611F202E80FFF778FF062805D049
:1002D000236923F00103236170BD072070BD00BFB7
:1002E000FEFF0700003C0240044B1A69002ABFBF12
:1002F000034A5A6002F188325A607047003C02405B
:1003000023016745014B9868704700BF10E000E08B
:10031000014B1868704700BFD02F002038B5FFF799
:10032000F7FF0446FFF7EEFF054600BF00BFFFF7EB
:10033000EFFF8442F3D109480368DB0303D5FFF7DD
:10034000E1FF01340546C5F524354035A822B5FB4B
:10035000F2F54FF47A7101FB045038BD10E000E073
:100360003430013940F82120704705F0BDBA70479C
:1003700006F031B906F025B9254A264B106040F247
:10038000DC514FF47A72196059609960DA601A6131
:100390005A619A61DA611A625A62002307E0012108
:1003A0001D4A03EB010C42F823105FFA8CF38342E1
:1003B000F5DB1A4B40F2DC5119605960996000235B
:1003C00008E0174A02EB83014FF07E5C5A1CC1F82B
:1003D00000C0D3B28342F4DB002308E0114A02EBF1
:1003E00083014FF07E5C0133C1F800C0DBB2834271
:1003F000F4DB002308E00C4A02EB83014FF07E5C43
:100400000133C1F800C0DBB28342F4DB704700BFA8
:100410005C2B0020C4290020142A00207C2B002003
:10042000A42D0020B42B0020582600200849094B99
:1004300051F8202053F82010531A00EE103ADFED47
:10044000067AB8EEC07A67EE276A16EE900A704711
:10045000C42900207C2B00200BD7A33B2A4B07EE9E
:10046000101A196801EE101AD2ED040AB8EE410A0A
:1004700007EE900A254830EE606ADFED256A0378C2
:1004800086EE265A82ED040A77EEC75A33B1D2EDD2
:10049000051A45EE851AC2ED051A01E000205061EB
:1004A000D2ED066A92ED056AF1EE667AB4EEE76A7D
:1004B000F1EE10FA08D4B4EE666AF1EE10FACCBF91
:1004C000F0EE667AF0EE467AD2ED034A92ED024AF9
:1004D00077EE643ADFED0F2A63EE843A65EE222A66
:1004E00092ED013AC3EEA22A82ED037A92ED007AF0
:1004F000C2ED057A67EE837A45EE877A37EEA22A57
:1005000012EE100A704700BFE02D0020382B0020AB
:10051000002474490000C8420C490D4B086807EEDE
:10052000100AF8EE477A00225A61C3ED047A1A6382
:10053000C3ED0B7ADA64C3ED127A9A66C3ED197AC9
:10054000C3F88420C3ED207A704700BFE02D00205F
:10055000E82B002091ED005A9FED203A05EE900A1D
:100560009FED1F2A65EE037A45EE827AD1ED014AAE
:10057000DFED1C2A44EEA27A91ED024A44EE037AA2
:10058000D1ED031A41EE827A91ED047A9FED161AAD
:1005900047EE017AD1ED056ADFED140A46EEE07A06
:1005A00091ED066A9FED120A46EE007A91ED073A48
:1005B000DFED103A43EE637A086081ED034AC1ED46
:1005C000024A81ED015A81ED076AC1ED066A81EDAB
:1005D000057AC1ED047A17EE900A7047D58111BBF8
:1005E0007932F83A1A1B5E3B382F5740200B89406E
:1005F0000A771C404CF3063F0D4B0E4A0020186052
:1006000058609860D860186158619861D861186224
:1006100058629862D862186358639863D8631A6402
:100620005A649A64DA641A655A659A65DA6570479D
:10063000B42A00206DE71CC14160704710B5044624
:1006400005F0CCFC204605F076FD01462046FFF77C
:10065000F3FF00232372204610BD2DE9F04104462C
:100660000D460079012117461E4605F02DFE207922
:10067000002105F0D3FD204629463A463346BDE821
:10068000F04105F0D1BCF8B504460D4600790021D3
:100690001F46164605F018FE207A60F07F031D43C2
:1006A000E9B2204605F03EFD3D4606E02046002129
:1006B00005F038FD06F8010B013D002DF6DC207930
:1006C0000121BDE8F84005F0FFBD07B501230DF19C
:1006D0000702FFF7D8FF9DF807000EBDF8B50446E6
:1006E0000D46007900211F46164605F0EDFD237AE0
:1006F0001D43E9B2204605F015FD3D4605E02046C4
:1007000016F8011B05F00EFD013D002DF7DC2079E8
:100710000121BDE8F84005F0D7BD07B502AB03F8ED
:10072000012D1A460123FFF7D9FF0EBD024805210E
:1007300001220323FFF791BFA82A002010B5064C21
:10074000204605F08FFC012120460A460323BDE820
:100750001040FFF782BF00BFA82A002008B503465B
:100760000A4604481946FFF7D8FF0120BDE80840B3
:1007700005F047BDA82A002010B501460448FFF740
:10078000A4FF0446012005F03CFD204610BD00BF3B
:10079000A82A00201E4B10B51C78002C36D101224F
:1007A0001A70FFF7C3FF7520FFF7E6FF00F07E0029
:1007B00068282BD1174B186840F0030119606B2093
:1007C0008021FFF7CBFF642005F01BFD6A2010217C
:1007D000FFF7C4FF6B200321FFF7C0FF6C20214609
:1007E000FFF7BCFF19202146FFF7B8FF1A200321AD
:1007F000FFF7B4FF1B201021FFF7B0FF1C200821DA
:10080000FFF7ACFFBDE81040FFF798BF10BD00BF79
:100810005C2A0020CC2D002001EBD171491004E0AE
:100820000378427843700270023011F1FF31F7D241
:100830007047000010B5064C06483B2122460E23A7
:10084000FFF721FF20460E21BDE81040FFF7E4BF6F
:1008500000260020A82A0020074810B5074C016890
:1008600022684B1C9342036004D0FFF7E3FF236828
:100870005A1C226010BD00BF542A0020042800200A
:1008800010B5074C0748216802684B1C934223604F
:1008900004D0FFF7CFFF23685A1C226010BD00BFB1
:1008A0005C29002004280020024A034B1A60FFF74D
:1008B00071BF00BF58A00B3AE42D002008B5FFF728
:1008C0002DFD124BDFED127A93ED027AB4EEE77A4A
:1008D000F1EE10FA0F4B06DC9FED0F0AB4EEC07A72
:1008E000F1EE10FA10D519680C4A411A01EE901A6F
:1008F0009FED0B1AF8EE616AD2ED000AC6EE816A2E
:1009000047EE260AC2ED000A186008BD742A0020CE
:1009100035FA8E3C542B002035FA8EBC4C26002034
:100920000024744910B5FFF7ABFF0D4B0D491C684F
:10093000B1F908000C4A24181C6010605C68B1F919
:100940000A00B1F90C105060201858609868916046
:1009500041189960054B1878421C1A7010BD00BFF1
:10096000402A002000260020642A0020582B002066
:100970007FB51F4B1F4D1A6895F800C0596892FB50
:10098000FCF41D4A10685668241A91FBFCF0301ADA
:100990009E689168019496FBFCFC0022CCEB01015F
:1009A0001A605A609A602A7001EE904A134A144BFA
:1009B000029000EE900A06EE901AD2ED007AB8EEA0
:1009C000E11AB8EEE00AB8EEE67A21EE271A20EE38
:1009D000270A67EE277A039183ED001A83ED010A57
:1009E000C3ED027A04B0BDE87040FFF767BF00BFF7
:1009F000402A0020582B0020182E0020E42D002033
:100A0000742A002070B5B2B000243194154D22E054
:100A1000FFF710FF144B14B9B3F9083005E0012CAF
:100A20000CBFB3F90A30B3F90C304DF806300A2088
:100A3000043605F0E6FBC42EEAD13121684631AA1E
:100A400003F0A7FD319B192B07DC0134E4B2032C22
:100A500045F8040F03D00026DAE7002000E001206B
:100A600032B070BD142E002000260020FFF792BE89
:100A700008B5FFF7F1FE0C4B0C4A1868B2F900C03C
:100A800000EB0C0119605868B2F90210B2F904C009
:100A90009A68401802EB0C0158609960044B187872
:100AA000421C1A7008BD00BFA829002000260020A3
:100AB00048290020F0B5114A114C17781148124905
:100AC00000231646114D5A5992FBF7F200EE102AF8
:100AD00004340430F8EEC06A94ED007AD0ED007A68
:100AE00046EE877A002217EE90CA5A5104330C2B37
:100AF00041F804CFE6D13270F0BD00BF4829002094
:100B0000E8290020202E00206C2D0020A82900209C
:100B100010B5002408E0FFF78DFEFFF7A9FF40F6AF
:100B2000C41005F068FB0134B4F5C87FF3D1204848
:100B300020490023204C1A5900EE902A9FED1F0AED
:100B4000B8EEE07A043087EE007AD0ED007A67EEF6
:100B5000277A17EE902A41F8042F00221A51043305
:100B60000C2BE7D11649174B17481A7091ED022A42
:100B7000DFED162A72EEC21AD1ED004A32EE211ACA
:100B8000D1ED013AB5EEC01AF1EE10FA104BB1EE0C
:100B9000644AB1EE633AD8BFB1EE411A80ED004A23
:100BA00080ED013AC0ED021A83ED001A10BD00BFBE
:100BB000E82900206C2D0020A82900200000C8434F
:100BC000702D002048290020242E00206DE71CC134
:100BD000482B002010B54620002105F01FFB002403
:100BE000462004F00101013405F06EFBE4B232202E
:100BF00005F007FB0A2CF3D14520002105F00EFB80
:100C00004520002105F060FB4520002105F006FB92
:100C10004520002105F058FB2020032105F0FEFAB5
:100C20001020032105F0FAFA2420032105F0F6FA3A
:100C30001120032105F0F2FA2520032105F0EEFA38
:100C40002220032105F0EAFA0321232005F0E6FA29
:100C50003720002105F0E2FA4020002105F0DEFAFD
:100C60004120002105F0DAFA3420002105F0D6FAFF
:100C700004481721162205F017FC0348BDE8104070
:100C800005F0B0BA942E0020902E0020034B0449AA
:100C90000448054A196058609A607047EC290020A2
:100CA000A8E49C3A17F19DBA91459ABA38B5074D18
:100CB000074C2A682068131AB3F57A7F05D3FFF72B
:100CC00031FEFFF7D5FE2968216038BDE02D0020F8
:100CD000102E00200448054A00230360436083600F
:100CE00013605360704700BF8C2A0020AC2B00209B
:100CF0002DE9F84F2DED068BDDED108A08EE103A48
:100D000068EEA82A48EE082A9DED119ADDED127AC8
:100D100049EE092AB6EE003A27EE833ADFF8309220
:100D2000864C874F874D884EDFF828A2DFF828B21F
:100D3000DFF8288289ED003A09EE900A12EE900A57
:100D40000AEE902A0AEE101A0AF0ECFE0CF066FA8F
:100D50000BF01EFA02EE100A88EE825AD8F8000054
:100D6000C9EE023AD4ED000A97ED006AD5ED006AAB
:100D700096ED000A66EE261A26EEA01A50EE201A0C
:100D800006EE001A20EE000A16EE060A88EE024A67
:100D900006EEE60A00EEA00A71EE015A20EE058A80
:100DA00015EEA38ADAED007A9BED007A48EE077A19
:100DB00071EEA14A25EE849A64EEA38A18EE101A09
:100DC00050EE048A14EE859ACAED007A03F005FC11
:100DD000434610B10022CAF80020DFF88491DFF802
:100DE0008481D9ED004A9BED007A48EE874A83ED75
:100DF000008AC9ED004AD8F8000018EE901A03F0F6
:100E0000ECFB434610B10020C9F80000DFF8588120
:100E10009BED004A98ED005A09EE045ADFF84CB1F8
:100E2000C3ED008A88ED005ADBF8000019EE101AB5
:100E300003F0D3FB43465A4608B10021196082ED06
:100E4000009A424AD2ED000A40EE89AA40EE889A02
:100E500000EEA8AAD3ED003AD9ED006A9AED006A37
:100E60007AEEA3AAD5ED004A3AEE26AA97ED007ACB
:100E700079EE869A96ED005A64EEAA5A24EE8A0A12
:100E800047EE295A94ED001A15EE690A41EE4A5AC6
:100E90002F4B25EE2A4A01EE6A0A17EE0A4A93ED15
:100EA000003AF0EE452A65EE0A7A45EE832A01EE15
:100EB000294AB0EE472A47EE2A7A00EE032AF0EEDE
:100EC000641A44EEE97A44EE031A22EEA26A02EEB4
:100ED000026A07EE831A01EEA16A01EE016A87ED4C
:100EE000002A16EE100AC6ED002AC5ED001A84EDA0
:100EF000001A0AF017FE0CF091F90BF049F9D7ED42
:100F0000006A05EE900AD6ED000AD5ED003A94EDA0
:100F1000000AC6EEA56AC0EEA50AC3EEA53AC0EE69
:100F2000255AC7ED006AC6ED000AC5ED003AC4EDCA
:100F3000005ABDEC068BBDE8F88F00BF9829002051
:100F40004029002094290020002800204C2A00205D
:100F5000F82900203C2B00200C2A002050290020DA
:100F60004C290020542900205C280020582900200A
:100F70002DE9F8433C4C3D4E3D4D3E4F2DED048B4D
:100F8000D4ED005A96ED008AD5ED007AD7ED008AAF
:100F900068EE255A48EEA75AB7EE009A35EEA55AE4
:100FA00015EE100A0AF0BEFD68EE084A48EEA84A9F
:100FB000804634EEA44A894679EE443A13EE900A0C
:100FC0000AF0B0FD02460B46404649460BF08AFF48
:100FD0000BF0DEF897ED006AD4ED002AD5ED006A3B
:100FE00096ED003A66EE222A56EE832ADFF88880D4
:100FF00032EEA22AC8F8000012EE100A0AF092FDA2
:101000000BF01CFF0BF0C4F8D6ED008AD7ED001AE8
:1010100095ED007A94ED008A68EEA11A48EE071A61
:10102000C8F8040031EEA11A11EE100A0AF07AFD98
:1010300068EE080A48EEA80A044630EEA00A0D46FB
:1010400079EE407A17EE900A0AF06CFD02460B46E4
:10105000204629460BF046FF0BF09AF8C8F8080026
:10106000BDEC048BBDE8F88398290020942900206A
:1010700040290020002800208C2A002008B5FFF716
:1010800029FE0F4B0F491048104A4FF07E5CC3F801
:1010900000C000230B60036013600D490D480E4A29
:1010A0000B60036013600D490D480E4A0B6003602E
:1010B00013600D480D490E4A0E4B08601A6008BDBA
:1010C0004029002000280020942900209829002091
:1010D0003C2B00204C2900205C28002050290020B7
:1010E0005429002058290020CDCC4C3E4C2A002009
:1010F0006F12033A0C2A00201FB5DDF818E0DDF866
:101100001CC0074CCDF800E0CDF804C02468029460
:10111000FFF7EEFD04B0BDE81040FFF729BF00BFA8
:10112000700C00202DE9F041069DD06100279762E8
:1011300013606E1E1D68B30005F1340808EB030050
:10114000556014469060D762918216624FF001029A
:1011500002FA03F84FEA480060622168087903F058
:10116000B3FD1A4AB0FBF2F3581E4FF6FF71A862A6
:10117000E9622F60EA6822F00103EB60286A20EA46
:10118000080129622B6A626A012E23EA02032B629C
:10119000D4BF05F1180305F11C0306F0010019681E
:1011A000C000FF2616FA00F221EA02061E601A6845
:1011B000612111FA00F616431E60296A012348EAEC
:1011C000010028622B60BDE8F08100BF40420F00A3
:1011D00073B500241148124A235C1B01D5186E68B0
:1011E000BEB1D058297B0A2203F074FB697B0D4BFA
:1011F0000091302202FB0432204640F2DC5133469B
:10120000FFF790FF084A697B52F82420304603F02C
:1012100087FE0134082CDDD17CBD00BF70EC0108D5
:10122000DC19002080260020040C002043681A6A84
:10123000416A4A401A627047416883681B680A6ABB
:10124000416A1142816A10B514BF0022012291B196
:101250000AB1C38213E0C48A191B1FFA81FCACF5E2
:1012600060735C1FA1B240F2AE44A14294BFA0F8EB
:1012700014C0826203E012B10122C3828262BDE81F
:101280001040FFF7D3BF0000024B302202FB0030BA
:10129000FFF7D2BF802600200720FFF7F5BF06200A
:1012A000FFF7F2BF0520FFF7EFBF0420FFF7ECBF09
:1012B0000320FFF7E9BF0220FFF7E6BF0120FFF799
:1012C000E3BF0020FFF7E0BF08B5FFF755F8BDE822
:1012D0000840FFF77DBF0000064B1B5C072B06DCB8
:1012E000054A302000FB0321888A80B2704740F213
:1012F000DC50704778EC01088026002070B500248F
:101300002DED028B33E03048A6008119204691ED87
:10131000008AFFF7E1FF2D4B02EE900A9A1992ED39
:10132000002AB8EEE27A55F82420294B294808EE25
:10133000072A01EE102AFDEEC21A9E1911EE901A2C
:10134000F8EEE17AF8EEC10A40F82410326817EEA0
:10135000900A10EE901A03F004F900EE100ABDEEA8
:10136000C06A16EE100A45F824000134E4B21A4DA2
:101370002A681A4D9442C6DB194C94ED007A00237A
:101380001849EC5858581849241A04EE904A04EEAB
:10139000100AF8EEE46AF8EEC43A46EE873ABDEE7B
:1013A000E33A13EE100A585004330C2BE8D1032310
:1013B00005E055F8230041F823000133DBB29342E6
:1013C000F7DBBDEC028B70BDA42D0020B42B0020F8
:1013D00058260020102600205C2B0020142A002014
:1013E000402B00207C2B0020C429002038B50B4D59
:1013F00000240EE00A4A0B4814F802C055F8042FE6
:1014000000EB0C1392B259680868597BFEF7A8FFED
:10141000013405490B689C42ECDB38BD28280020CC
:1014200080EC0108DC190020142E002038B5054698
:1014300000240BE0084B0948E15C00EB0113013488
:101440005A68597B1068AAB2FEF78AFF04480268FE
:101450009442EFDB38BD00BF80EC0108DC190020AE
:10146000142E0020F8B51E4D0728C8BF082028609C
:10147000002418E01B4E1C4FA65D07EB0617013435
:101480007868007903F020FC18497B68B0FBF1F222
:101490001B68511E88B240F6C41298620721DA62B6
:1014A000304604F0BBFE29688C42E3DB00230EE0EB
:1014B0000C480D4A13F800C002EB0C125068026889
:1014C000500100F184420120C2F880021B188B42B7
:1014D000EEDB4FF47A70BDE8F840FFF7A7BF00BF1E
:1014E000142E002080EC0108DC19002040420F007F
:1014F00038B5054600240FE040F24C40FFF796FF58
:10150000FA2004F07EFE4FF47A70FFF78FFFFA2086
:1015100004F077FE0134E4B2AC42EDD138BD0000F6
:101520000548064B90ED007A93ED000A77EE407A7D
:1015300017EE900A704700BF1828002020280020CE
:1015400030B5C489002224F0FF03C38113464FEA5B
:10155000620112F0010F15BF10F8111030F81110D0
:101560004B4083EA1123082113F4004F4FEA430351
:101570001DBF83F440554FF6FE732B409BB20139DB
:10158000F2D10132102AE2D1C481180B30BD000023
:1015900070B5124D0646A0243046214602F0C4FF25
:1015A00002220F48314604F0F9FF022813D102F05D
:1015B000CFFF0234E4B2B02C25F8020FECD1094C75
:1015C0002046FFF7BDFFE18901F00F03C21A504228
:1015D00040EB020070BD002070BD00BF5E2B0020FC
:1015E000942E0020602B00201E2102F09DBF0000E1
:1015F00010B50021044602F097FF032221460B4854
:1016000004F0CCFF094804F0DFFF03280BD102F0FF
:101610009DFF044602F09AFF000240EA044402F0F3
:1016200095FF204310BD002010BD00BF942E002068
:101630007620582102F078BF2DE9F8437620FFF795
:10164000D7FF1849184A8B884C8910604FEA034825
:1016500024020B89154D041BA3FB04674FEAE47CAD
:1016600003FB0C77F20942EA4762FB114FF00009D5
:1016700012EB080243EB0903C5E900234B88DE03A4
:10168000CB880B49A3FB044503FB0C55220A42EA15
:10169000056200272B12921943EB0703C1E90023CF
:1016A000BDE8F883602B002040260020A029002000
:1016B000802A00207620482102F036BF38B57620F7
:1016C000FFF796FF124B134918600B684968C21761
:1016D000414303FB0212A3FB00010F4B5118D3E956
:1016E0000023440D44EAC1244D15A21A65EB0303FF
:1016F000900A40EA835099120AF06AFEDFED077AF9
:1017000006EE900A66EEA76A16EE900A38BD00BF94
:10171000D82D0020802A0020A02900200000003DB4
:1017200038B5164C23782DED028BF3B1144D95EDA1
:10173000008AFFF7C3FF07EE900A124938EE278AA6
:1017400085ED008A0D786A1C0F4D0A7028781428E0
:1017500005D1FFF76DFF00232B70237001E0FFF729
:10176000A9FF2A78501C287005E0FFF765FFFFF7F6
:10177000A1FF01212170BDEC028B38BD6029002042
:10178000442B0020E42B0020442600200000000011
:10179000F8B52D4D2B78002B51D006EE903A2B4CFE
:1017A0002B4B94ED007AF8EEE67AC7EE277A9FEDA0
:1017B000297AC7EE876AC3ED007A16EE900A0AF01E
:1017C000B1F9254B064618680F460AF0ABF90246F8
:1017D0000B46304639460BF087FB02460B4600208D
:1017E0001E491F4E0AF03EF815A3D3E900230AF064
:1017F000EDF90AF0CDFC1B4B18601B4B197819B1A1
:10180000002230601A7005E0184B31681A6802F047
:10181000A8FE306000222260154C2078002129703B
:1018200068B9FEF77BFD13490B68C3EB000C124847
:10183000844504D93068114B012218602270F8BD2C
:101840000000000040A5E540E42B0020442B0020D0
:10185000602A002080E6C547380C00200000F03FD9
:10186000182800203C2A0020300C0020000C00200A
:1018700050280020DC2B0020809698002028002093
:1018800008B5FFF74DFFBDE80840FFF781BF000036
:1018900010B52DED028B9FED0C8A1924FFF7F0FF98
:1018A0000A4BD3ED007A0C2038EE278A04F0A9FC0D
:1018B000013CF3D1B3EE090A88EE000A044880ED3A
:1018C000000ABDEC028B10BD000000003C2A002085
:1018D0002028002010B5FEF721FD1A4C1A4920607F
:1018E0001A4A1B4B1B4C1A600020086020607620AF
:1018F000FFF77AFE032004F084FC7620FFF748FE11
:1019000020B1154B186840F008021A60FFF790FEEE
:101910001249134800230B7003700A2004F071FC75
:10192000FFF7FEFE0A2004F06CFCFFF7A9FF0A2077
:1019300004F067FCFFF7ACFFFFF7AAFF2168094A34
:10194000116010BDDC2B0020602A0020AEDC423E7E
:10195000380C002020280020CC2D002060290020F9
:10196000442600201828002038B50B480C4619469C
:10197000154604F0BEFD21460748FEF7FBFC29464C
:101980000548FEF7F7FC044804F04AFE0120BDE8D4
:10199000384004F036BC00BF942E002070B50546D8
:1019A0001446052944D8DFE801F00306151E21304E
:1019B0000221802201E002211D222346FFF7D4FFED
:1019C0002846042108222346FFF7CEFF28461C2183
:1019D000002228E0022180222346FFF7C5FF284687
:1019E00004210022EFE70221FF22E6E70221802204
:1019F0002346FFF7B9FF2846042108222346FFF7B4
:101A0000B3FF28461C2180220DE0022180222346BC
:101A1000FFF7AAFF2846042108222346FFF7A4FF68
:101A200028461C21B0222346BDE87040FFF79CBF2A
:101A300070BD000070B51A2205460C4605481B21F2
:101A40001E4604F031FD284621463246BDE870406E
:101A5000FFF7A4BF942E00202DE9F0410D46144657
:101A600098469DF81C609DF8180042F210771BE024
:101A70002548314604F03DFD23480121FEF77AFC5C
:101A8000214804F0CDFD18B12048214903F069FD3B
:101A9000012231461C4804F081FD1B48FEF768FC1A
:101AA000013F00F0010029D00028E1D1164831465D
:101AB00004F01FFD14482946FEF75CFC124804F0B0
:101AC000AFFD18B11148124903F04BFD31462246D3
:101AD0000D4804F063FD0C4804F076FD844208DDF7
:101AE000BDE8F0810848FEF743FC08F80500013521
:101AF00000E00025A542F5DBBDE8F081034805497B
:101B0000BDE8F04103F02DBD942E0020602E002092
:101B100088EC01088FEC010830B5054685B0144605
:101B200011B10021042200E003222346FFF71CFF2D
:101B300001238DE8180028468F2103AB0222FFF70E
:101B40008BFF9DF80C109DF80D300802C01805B0F1
:101B500030BD0000144B154A154993ED007AB2EEE2
:101B6000042A77EE021AB6EE001A77EE010A71EE39
:101B7000817A05EE100AC0EEA77AB7EE000AF8EEF9
:101B8000C55A70EE676A92ED006AC1ED007A67EEA1
:101B9000A57A46EE867A26EE877AC2ED007A83ED44
:101BA000007A17EE900A7047400C00203C0C002091
:101BB0004826002008B5012162220748FFF7ACFF44
:101BC000FFF7C8FF00EE100A044BFDEEC07A17EED7
:101BD000900AC3ED007A08BD8C2900205026002011
:101BE00010B500231A46C45CC3F11101013314FA85
:101BF00001F1122B0A44F6D1104610BD02484FF4F1
:101C0000E13104F071B800BF6C2E002070B51E48A1
:101C100004F0CBF8092831D91B4804F0B1F8C0B260
:101C20002B282BD100241848184D04F0A9F830387F
:101C300060510434242CF6D100241CE0C3F10506C5
:101C400050FA06F606F00106CE540133062BF5D104
:101C5000043206310C2A02D0A8580023EEE70C48C3
:101C6000FFF7BEFF0A210B4A90FBF1F3A3500434A7
:101C70000C350C2C02D006490022EDE7024804F096
:101C800094F80928C3D870BD6C2E0020802D002048
:101C9000EC2D002034290020144B154A154993EDF2
:101CA000007AB2EE042A77EE021AB1EE021A77EE4B
:101CB000010A71EE817A05EE100AC0EEA77AB7EE3E
:101CC000000AF8EEC55A70EE676A92ED006AC1ED3F
:101CD000007A67EEA57A46EE867A26EE877AC2ED1E
:101CE000007A83ED007A17EE900A7047580C0020B6
:101CF000440C0020FC250020144B154A154993ED97
:101D0000007AB2EE042A77EE021AB1EE021A77EEEA
:101D1000010A71EE817A05EE100AC0EEA77AB7EEDD
:101D2000000AF8EEC55A70EE676A92ED006AC1EDDE
:101D3000007A67EEA57A46EE867A26EE877AC2EDBD
:101D4000007A83ED007A17EE900A70475C0C002051
:101D5000480C00207C2900200D4A0E490E4B0968D2
:101D600010681A680D4BC0EB010C10B5C2EB0C04E7
:101D700001EB000C0A481C600068C2EB0C049C607C
:101D80000C1A0918A4188A185C60DA6010BD00BF2C
:101D900028280020540C0020882B00202C2800200C
:101DA000442900202DE9F8432DED028B484B494E84
:101DB0001A78494D012A994640F08480474C484F93
:101DC000484AD4ED008A97ED008A18EE900A18EE82
:101DD000101AFEF743FB38EEC88A07EE900ABDEEF4
:101DE000C88A414918EE103A0933082B88BFFDEE26
:101DF000E77A08788CBF17EE903A002300B91133C8
:101E0000322BA8BF32236FF03107BB42B8BF3B462D
:101E1000364F374938680B60C218DFF8F480354B0D
:101E2000C8F8002000201968334AFEF717FB06EEB9
:101E3000900A9FED327AF1EE667AF4EEC77AF1EE0F
:101E400010FA404609D49FED2E7AF4EE477AF1EE6F
:101E500010FAC8BFF0EE477A01E0F0EE477A3A6830
:101E6000F3682849D61A0968002EB8BF76428E4218
:101E700003DD022389F8003018E0234E316856183C
:101E8000B34207DD94ED001ADFED200A31EE200A9F
:101E900084ED000AC1EB020C634507DAD4ED002A99
:101EA0009FED1A2A72EEC21AC4ED001A026804EEFF
:101EB000902AB8EEE44A74EE273ABDEEE33A85ED97
:101EC000003A01E0F0682860BDEC028BBDE8F883C1
:101ED000082A0020C4290020540C0020742B002064
:101EE00010280020C82C0020702B00206C0C002033
:101EF00024280020342B0020E42C0020000048C2BD
:101F000000004842240C00202C0C00200AD7233C5F
:101F1000502B0020F8B54C484C4D03784C4C012B0D
:101F200040F08D804B4F4C4AD7ED001A92ED007A6D
:101F3000F8EEE10A17EE100A37EE601A10EE901A6A
:101F4000FDEEC16A454A16EE906AFEF787FA00EE8A
:101F5000100A4349FDEEC07A002E17EE900AC1ED3B
:101F6000007AC5ED007ABE4603DA3E4F3B682BB1DE
:101F700008E007D03B4A1168012903D1032790FBF1
:101F8000F7F32B6038492A680B689A420F4604DB46
:101F9000364B1B689A42B8BF13460936122E2B6087
:101FA00002D82A4900220A6010F57A7F01D1002068
:101FB0002860DEF804502E4A05EE105AD2ED003AA1
:101FC000B8EEC53A13EE900A73EEC34A13EE101A38
:101FD000BDEEE44A274A14EE105AFEF73FFA02EE2D
:101FE000900A254BBDEEE22A002D12EE100A83ED79
:101FF000002A84ED002A03DA204B196829B108E091
:1020000007D01E490A68012A03D1032290FBF2F38C
:10201000236022683B689A4204DB14490B689A42A9
:10202000B8BF13460935122D236002D8084B002291
:102030001A6010F57A7F05D100202060F8BD0021DC
:1020400029602160F8BD00BF5426002088290020A7
:102050004C2B002034290020702A0020382D00202D
:10206000A02A0020002A00204C0C0020600C002038
:10207000A82B00201C2D002080290020D42D00201A
:102080002DE9F0472DED028B6548664C0378664ECE
:10209000664D012B4CD1DFF8C891DFF8C881644B45
:1020A000D9F80020D8F800701968D01B471A03EE41
:1020B000107A9FED608AF8EEC32A5F4F5F4A396855
:1020C00022EE882A12EE100AFEF7C8F95C49D9F808
:1020D0000420D8F8043082460868D31AC0EB030CF9
:1020E00001EE90CAB8EEE11A7A6821EE087A82F021
:1020F000004117EE100A534AFEF7B0F92168524A20
:1021000007465046FEF7AAF900EE900A61684F4A6A
:10211000FDEEE07A384681F00041C6ED007AFEF728
:102120009DF900EE100AFDEEC06AC5ED006A73E08D
:1021300047490878012846D1DFF82491DFF8248147
:10214000D9F80070D8F800303C4AC3EB070A08EE13
:1021500010AAF8EEC87A9FED378A374F27EE880A23
:10216000396810EE100AFEF779F9D9F804107F6883
:102170008246D8F804000A1A06EE902AB8EEE66AFB
:1021800087F0004166EE085A2E4A15EE900AFEF7D7
:1021900065F921682C4A07465046FEF75FF905EEBF
:1021A000100A6368294AFDEEC54A384683F00041AB
:1021B000C6ED004AFEF752F904EE100AFDEEC43AED
:1021C000C5ED003A28E0234F0020FEF72FF994EDEB
:1021D000004AD7ED004A64EE243A1F4A13EE901AE3
:1021E000FEF73CF903EE100AFDEEC32A0120C6ED0E
:1021F000002AFEF71BF9D4ED011A97ED002A21EE13
:10220000C21A164A11EE101AFEF728F907EE100A44
:10221000FDEEC70AC5ED000ABDEC028BBDE8F087F4
:1022200054260020742A0020442900202828002059
:1022300088290020A69BC43A8C2A00203C2C002030
:102240004C2B0020582C0020902C0020AC2C00207F
:10225000280C0020340C0020E82B0020042C002047
:10226000C42900207C2B00201B4B1A781B4B032A0F
:102270000CD0052A19D0012A0CBF4FF4FA624FF492
:102280007A721A605A609A60DA6023E01448026831
:10229000B2F5966FB4BF11464FF49661B2F57A7FEE
:1022A000ACBF0A464FF47A72EBE700220D49515851
:1022B000B1F57A7F05DBB1F5966FA8BF4FF4966153
:1022C00001E04FF47A7199500432102AEED1064B96
:1022D00001221A70FFF78AB8A42A00202C280020B7
:1022E000680C0020B4290020D02D0020074A136874
:1022F000B3F57A7F05DB40F23A718B42A8BF0B46FB
:1023000001E04FF47A731360704700BF540C002053
:10231000154A164B106816494FF4FA6210B59A60C8
:10232000DA601A605A60134B086048608860C860C1
:1023300093E8060098689142B8BF1146DA68814276
:10234000B8BF01469142B8BF11460022B1F5FA6FFD
:1023500005DD9C58C1F5FA6C04EB0C009850043272
:10236000102AF3D110BD00BF70290020002E0020DC
:10237000982B00202C280020074B596940F2D56289
:10238000914207DC186940F2DC539842D4BF002028
:102390000120704700207047C429002008B5FFF7CE
:1023A000EBFF30B315480378022B26D0144A11787E
:1023B000D9B91448144BD0ED000A4068B8EEE00AD1
:1023C00007EE100A83ED000AF8EEC77A0F4B1048AB
:1023D0000021C3F8641183ED570AC3F84811C3ED17
:1023E000507AC0ED007A012313700A4901220A7065
:1023F00008BD034A074B1070187008BD082A00205A
:102400001C28002034290020702A0020E82B0020FE
:10241000A82B0020542600200448406940F2D563D0
:102420009842CCBF00200120704700BFC429002083
:1024300038B5FFF7F1FF1B4C00282FD02378022B73
:102440002FD0194D287830BBFFF7B4FB07EE100AE8
:102450001649174BF8EEC77A03F1C802C1ED007AAE
:1024600017EE900A43F8040F9342F9D19FED110A39
:1024700011491248124A27EE800A002380ED000A13
:10248000C1F8F430C1ED3B7AD3680E480E490360C1
:1024900001220B602A700122227038BD024920708F
:1024A000087038BD082A00207C2D0020742B0020E5
:1024B0006428002000004842E82B0020782B0020F0
:1024C000C42900206C0C0020502B0020F8B55C487B
:1024D0005C4E03785C4C012B7ED15C4A5C495D4BC1
:1024E00092ED007ADFED5C7A5C4A67EE277A9FED29
:1024F0005C6A92ED007A77EE465A77EEC76AF4EEA0
:10250000E57AF1EE10FAC1ED007AC3ED006A05D864
:102510009FED540A76EE806AC3ED006A77EE060AF4
:10252000F4EEE07AF1EE10FA07DB93ED002ADFED2E
:102530004D1A32EE611A83ED001AF06840F24C4CED
:10254000604542DD3F488168A1F5B860C11E32296F
:102550000ED945490023C2ED007AC1F8A030434AA4
:102560004349236000201070424B0A681A6033E030
:1025700093ED007AF5EE002AB4EEE27AF1EE10FA6D
:1025800006D5BDEE003AB4EEC37AF1EE10FA1EDCC9
:102590003649384D0878364F68B93B682F68364859
:1025A000DF1B874218D90120C2ED007A0022087093
:1025B0002B60226010E017EE101A00202F4AFDF762
:1025C0004DFF39682060296006E0C2ED007A264A96
:1025D00000232360C2F8A030294BB2689968501AD2
:1025E00007EE900AD4ED004AF8EEE73ADFED257ADF
:1025F0009FED254A64EEA77A43EE847A9FED237A15
:10260000F4EEC77AF1EE10FA0BD49FED215AF4EEF6
:10261000457AF1EE10FACCBF15EE100A17EE900ACB
:1026200001E017EE100A1B491B4A8968FDF716FFE7
:1026300005EE900A1948BDEEE56A80ED006AF8BD26
:1026400058280020C4290020FC2900204C26002006
:102650000C28002090290020E12E6542E02B00206C
:10266000000034430000B443E82B00203029002050
:10267000E02D0020582A002020A10700742C002003
:102680007C2B002035FA8E3C0BD7A33BDB0F49C0D7
:10269000DB0F4940742A0020202C0020882B0020CA
:1026A000F8B52F4CFFF7ECFCFFF710FF2368D907B4
:1026B00003D4FFF777FBFFF719FE22680A24B2FB69
:1026C000F4F104FB112008B9FFF724FC254C257810
:1026D00025B1254803780BB1FFF73EFB234DFFF7EB
:1026E00017FEE96840F24B429142214901DD002387
:1026F00015E0204E204F214B36783D781A68002394
:10270000CA502EB1002D14BF10464FF4FA6000E0FD
:1027100010461B4FD8510433102BF1D1E7E719486D
:10272000CA581D58954204DB154A9A589542B8BFBD
:102730002A46C2500433102BF1D1207808B9FFF794
:1027400093FD2178012909D1074B93F800C0BCF112
:10275000010F03D1BDE8F840FEF748BEF8BD00BF49
:102760009C2A00203C260020D02D0020C4290020D7
:10277000982B0020382B0020280C002070290020E6
:10278000002E00202C28002038B585B229460748A5
:1027900001F09BFE0024A91C60F30F0489B20348DA
:1027A00001F093FE60F31F44204638BD302E002018
:1027B00038B504468DB22946A2B2054801F08DFE17
:1027C000A91C034889B2220CBDE8384001F085BE3F
:1027D000302E00200B4A38B51C2404FB0024084688
:1027E0000D46FFF7D1FF2060281DFFF7CDFF606089
:1027F00005F10800FFF7C8FF0023A060E3606361F4
:1028000038BD00BFE82B002038B5094B1C2404FB61
:1028100000340D462068FFF7CBFF6068291DFFF7E5
:10282000C7FFA06805F10801BDE83840FFF7C0BF49
:10283000E82B0020F8B54D4A4D4C4E4E4E4B4F4FB5
:102840004F485049504DA660666262652267C4F8E1
:10285000B060C4F8CC604D4A23604FF07E56E3610F
:10286000A763C4F88C004A4F4A48C4F8A830C4F89B
:10287000C4300E60484B494965602562C4F8E420C5
:1028800000256FF03102C4F89000C4F8E030C4F8BD
:10289000F830A565424BE5656567A567E763256484
:1028A000C4F89450C4F8AC50C4F8C850C4F8E85008
:1028B000C4F8FC50C4F80051C4F804510A60394A05
:1028C000322119601060384B38485A21FA221960B9
:1028D0000260FEF7DBF9364B364804F11802186047
:1028E000BC4600233146082B18BF10605E1CF3B2B3
:1028F0001C320E2BF7D1304E304A3148314B31600B
:1029000040F27E47176018602F4F304E3048082243
:10291000013AD2B247F8041F002346F8045F40F89A
:10292000041F002AF4D12B492B4AC4F854314FF02C
:102930007C5EC1F808E02949C4F8583101201070C4
:102940000870274A27482849C2F800C0C4F8500137
:10295000C4F83401C4F83831C4F83C31C4F86C11FF
:10296000C4F87031C4F87431F8BD00BF0000604095
:10297000E82B00200000AFC30000C842000048431D
:1029800000004040340C0020000016439A99193F83
:102990000000A040CDCCCC3D0000C8414C0C002034
:1029A000600C0020000C00202C0C0020240C0020C7
:1029B0008429002000007A44402B00207029002048
:1029C0000AE81CC1482B0020A02D0020B02B0020BD
:1029D0005426002058260020280C002058280020CB
:1029E000E82D0020CDCC4C3F00004842002010B51F
:1029F0000146FFF7EFFE01202421FFF7EBFE022046
:102A00001821FFF7E7FE03200C21FFF7E3FE042067
:102A10003021FFF7DFFE05203C21FFF7DBFE06201B
:102A20004821FFF7D7FE54210720FFF7D3FE4FF4CC
:102A3000A670FFF7A9FE484C602120600820FFF730
:102A4000C9FE4FF4A070FFF79FFE444CC4F8F80095
:102A50004FF49E70FFF798FE414908604FF4A27052
:102A6000FFF792FE03EE100A3E4BFDEEC32A4FF431
:102A7000A470C3ED002AFFF787FE02EE100A3A4A5F
:102A8000FDEEC21A4FF49C70C2ED001AFFF77CFEF7
:102A900001EE100A3549FDEEC10A4FF49A70C1EDFE
:102AA000000AFFF771FE00EE100A3148FDEEC07A11
:102AB000C0ED007A09206C21FFF78CFE4FF48C707A
:102AC000FFF762FE2B4B183418600023082B18BF49
:102AD00020605A1CD3B21C340E2BF7D14FF49070E7
:102AE000FFF752FE06EE100A2348FDEEC65AC0ED6F
:102AF000005A4FF49270FFF747FE204B18604FF4D6
:102B00009470FFF741FE05EE100AFCEEC54A1C4A20
:102B100014EE901A4FF498701170FFF735FE194BB0
:102B200018604FF49670FFF72FFE04EE100AFCEECB
:102B3000C43A154813EE90CA782180F800C00C20E2
:102B4000FFF748FE0B208421FFF744FE0D20902163
:102B5000BDE81040FFF73EBE340C0020E82B0020FB
:102B6000000C00202C0C0020240C00204C0C002019
:102B7000600C00208429002070290020E82D00200E
:102B8000280C0020482B002058280020F8B572B6E9
:102B900000200146FFF738FE01202421FFF734FE14
:102BA00003200C21FFF730FE04203021FFF72CFE1C
:102BB00002201821FFF728FE05203C21FFF724FE04
:102BC000624C634F634D06204821FFF71DFE07202E
:102BD0005421FFF719FE20684FF4A671FFF7E8FDB6
:102BE00008206021FFF710FE5B4A4FF4A071D2F875
:102BF000F800FFF7DDFD594908684FF49E71FFF7B3
:102C0000D7FD5748036803EE103AF8EEC32A4FF495
:102C1000A27112EE900AFFF7CBFD3E68514F02EE13
:102C2000106AF8EEC21A4FF4A47111EE900AFFF781
:102C3000BFFD2C684C4E4D4D01EE104AF8EEC10A16
:102C40004FF49C7110EE900AFFF7B2FD484A1168EC
:102C500000EE101AF8EEC07A4FF49A7117EE900A4F
:102C6000FFF7A6FD09206C21FFF7CEFD41484FF488
:102C70008C710068FFF79CFD3F4B4FF48E71186814
:102C8000FFF796FD002404F19C0157F8040FFFF7AD
:102C90008FFD04F1A00156F8040FFFF789FD04F140
:102CA000A40155F8040F0C34FFF782FD602CEAD123
:102CB0003249086806EE100AF8EEC65A4FF49071D1
:102CC00015EE900AFFF774FD2D4B4FF492711868C2
:102CD000FFF76EFD2B4A117805EE101AF8EE454A03
:102CE0004FF4947114EE900AFFF762FD264890F8B5
:102CF00000C004EE10CAF8EE443A4FF4967113EE99
:102D0000900AFFF755FD214B4FF498711868FFF7B3
:102D10004FFD1F484FF48A71FFF74AFD00204FF422
:102D2000C071FFF745FD00204FF4C271FFF740FD71
:102D30000C207821FFF768FD0B208421FFF764FD4C
:102D40000D209021FFF760FD62B6F8BD340C002025
:102D5000240C00204C0C0020E82B0020000C00204C
:102D60002C0C0020A02D0020B02B00205426002089
:102D7000600C002084290020402B002070290020B6
:102D8000E82D0020280C002058280020482B002087
:102D9000CDCC4C4038B54FF49870FFF7F5FC114B93
:102DA000114D18604FF4AA70FFF7EEFC28604FF445
:102DB000A870FFF7E9FC0D4C20604FF4AE70FFF7F0
:102DC000E3FC68604FF4AC70FFF7DEFC60604FF42A
:102DD000B270FFF7D9FCA8604FF4B070FFF7D4FCD5
:102DE000A06038BD482B0020EC290020242E0020B4
:102DF00038B5144B144D1868144C4FF49871FFF704
:102E0000D7FC28684FF4AA71FFF7D2FC20684FF472
:102E1000A871FFF7CDFC68684FF4AE71FFF7C8FCEE
:102E200060684FF4AC71FFF7C3FCA8684FF4B2714F
:102E3000FFF7BEFCA0684FF4B071BDE83840FFF763
:102E4000B7BC00BF482B0020EC290020242E002016
:102E500038B5254CA26840F24B439A420BDC234D17
:102E60002878012807D14FF47A70FEF7DFFA20495D
:102E700000222A700A70A0681B4A40F24B43984215
:102E800012DC106840F26C7C60450DDD516899429F
:102E90000ADCFDF7B7FDFDF73BFEFFF7A9FFFDF7E5
:102EA0003BFB0320FEF724FBA26840F26C739A42BE
:102EB00010DD0E4B187868B90E490A78012A09D13D
:102EC0000D491A7040F24C40086048608860C86044
:102ED000FDF722FBA26840F24C4C624502DD054B37
:102EE0000120187038BD00BFC42900203C260020F6
:102EF000382B0020D02D00202C28002038B5144C71
:102F0000FEF7FCF9E26840F24B439A4201DCFFF71E
:102F10009FFF104B187848B90F490A78012A05D14C
:102F20000E48E4680568AC42C8BF1A700C4C0D4DE1
:102F300022780123012A2B7003D0FDF7EDFA2978BE
:102F40002170FFF775FABDE83840FFF727BA00BFD8
:102F5000C4290020382B00203C26002070290020A6
:102F60008C2B0020280C0020F8B54FF48E70FFF752
:102F70000BFC0E4B0E4F0F4E0F4D1860002404F14A
:102F80009C00FFF701FC47F8040F04F1A000FFF7D5
:102F9000FBFB46F8040F04F1A400FFF7F5FB0C342B
:102FA000602C45F8040FEAD1F8BD00BF402B00208B
:102FB000A02D0020B02B002054260020014B1868C3
:102FC000704700BF4C260020F8B5002604460F4687
:102FD000067035460F4802F0E8FE28B90120013698
:102FE00003F00FF9F6B206E00A4802F0C9FE605598
:102FF0000135EDB2002625B1601910F8013C3B2BDC
:1030000004D0092E02D8791E8D42E3DB00226255DE
:10301000F8BD00BF602E00201FB500210B2201A8C3
:10302000009105F0E9FB68460F21FFF7CDFF6846E8
:1030300005F032FB09F0ACF805B000BD38B5054627
:10304000002403E0FFF7E8FF0134E4B2AC42F9D119
:1030500038BD0000084910B51C2404FB0014FFF71C
:10306000DBFF2060FFF7D8FF6060FFF7D5FF00238C
:10307000A060E360636110BDE82B002010B504463A
:10308000FFF7CAFFDFED0B7A07EE100AB4EE677A9E
:10309000F1EE10FA4FF00000074B04D1074A1C7004
:1030A0001070012010BD1870054B4FF47A71196033
:1030B00010BD00BF66E6F642A42A00203C26002090
:1030C000680C002038B5874802F06FFE002800F039
:1030D0009081844802F054FE834BC0B2187031389E
:1030E000292800F28681DFE810F03D013F0144010C
:1030F00053016001840184018401840184018401FD
:103100008401840184018401840134003E004F0065
:1031100060009500A300B100C000D200E000E40010
:10312000F400FA00FA002A002301840184018401DA
:10313000840128012A013701840184017301FFF70A
:103140006BFFFFF769FFFFF767FFBDE83840FFF748
:1031500063BF0020FFF77EFF0120FFF77BFFFFF733
:103160005BFF624B0EE00320FFF774FF0420FFF7C4
:1031700071FF0620FFF76EFF0720FFF76BFFFFF7D9
:103180004BFF5B4B186038BD0220FFF763FF052043
:10319000FFF760FFFFF740FF00EE100ABCEEC07AB9
:1031A000544A17EE101A117038BD0820FFF752FF6D
:1031B000FFF732FF5049C1F8F800FFF72DFF03EE8B
:1031C000900A4E4BBDEEE33A83ED003AFFF724FF41
:1031D00002EE900A4A4ABDEEE22A82ED002AFFF78B
:1031E0001BFF01EE900A4749FDEEE17AC1ED007A3E
:1031F000FFF712FF01EE100A4348FDEEC10AC0EDD1
:10320000000AFFF709FF414B18600920BDE838406C
:10321000FFF720BFFFF700FF3D4A1060FFF7FCFEFD
:1032200004EE900A3B48BDEEE44A80ED004A38BD0A
:10323000FFF7F2FE384C2060384C04F12005FFF710
:10324000EBFE44F8040FAC42F9D138BDFFF7E4FEC1
:1032500005EE900A324BBDEEE55A83ED005A15EEAD
:10326000104AFFF7D9FE2F4B0DE0FFF7D5FE06EE13
:10327000900A2B49BDEEE66A81ED006A16EE104A0F
:10328000FFF7CAFE284B03EB8404206038BDFFF72C
:10329000D1FAFFF77BFCFFF7ABFDFDF7B3FBFDF7C2
:1032A0003BF9BDE83840FEF715BBBDE83840FDF7F7
:1032B000A9BBFFF7B1FE1D4C2060FFF7ADFEFFF785
:1032C000ABFE6060FFF7A8FEFFF7A6FEA060FFF769
:1032D000A3FEFDF71DFCBDE83840FFF789BD0320C4
:1032E00027E000BF602E0020640C0020340C00207A
:1032F0008429002058280020E82B00202C0C0020D6
:10330000240C00204C0C0020600C0020000C00203D
:10331000E82D002070290020402B0020542600209A
:10332000942B0020A42D0020B42B0020EC29002099
:103330000D20BDE83840FFF781BE0220F9E70C20E0
:10334000FFF788FE0B20FFF785FE0D20FFF782FEBA
:10335000BDE83840FFF71ABCFFF718FCBDE838405D
:10336000FDF7DAB8012000E00220BDE83840FFF7A1
:1033700085BE0320FFF782FE00283AD0FFF74CFEFF
:1033800000EE100A1B48BDEEC07A80ED007A38BD11
:103390000420FFF773FE00282BD01748154B00219F
:1033A0004FF47A7201701A6038BD0520FFF766FE8F
:1033B000F8B10024FFF730FE01EE100AFDEEC10A5D
:1033C0000E4B10EE902AE2500434102CF2D138BD8E
:1033D000FFF722FE01EE900AF7EE007AF4EE671A8C
:1033E000F1EE10FA064B02D10121197038BD002010
:1033F000187038BD680C0020A42A0020B4290020D1
:103400006129002001482C2102F096B8602E00208E
:1034100008B501460A22034802F005F9BDE8084054
:10342000FFF7F0BF602E002008B501460A220348CE
:1034300002F020F9BDE80840FFF7E4BF602E00204D
:1034400038B50546002404E00020FFF7EDFF013405
:10345000E4B2AC42F8D138BD07B508F063FB0246D0
:103460000B4605480221009102F0BEF903B05DF859
:1034700004EBFFF7C7BF00BF602E0020074B10B55D
:103480001C2404FB00342068FFF7E6FF6068FFF7A8
:10349000E3FFA068BDE81040FFF7DEBFE82B002087
:1034A000844638B50B480C466146154602F049F88B
:1034B0000848094902F045F8084803681C4203D14E
:1034C0000448074902F03DF802482946BDE8384063
:1034D00002F047B8602E0020BFEE0108CC2D00207E
:1034E0009DEC01080000000013B50A220F213648A8
:1034F00002F0C7F83549344802F023F8012430A31C
:10350000D3E900233048009402F073F92E48304983
:1035100002F017F82C482F4902F023F82A482E49C8
:1035200002F00FF828482D4902F01BF826482C49D4
:1035300002F007F80A220821234802F0A2F82248E4
:10354000284901F0FEFF04210A221F4802F099F8E1
:1035500021462548254AFFF7A3FF02212448234A94
:10356000FFF79EFF08212348204AFFF799FF042117
:1035700021481E4AFFF794FF10212048204AFFF7F8
:103580008FFF20211F481E4AFFF78AFF40211E4857
:103590001B4AFFF785FF80211C48194AFFF780FF6F
:1035A0001B48174A4FF48071FFF77AFF0648194904
:1035B00002B0BDE8104001F0D4BF00BFAFF30080FF
:1035C000000000A099990940602E0020A2EC01089B
:1035D000B5EC0108C2EC0108CDEC0108DDEC0108F6
:1035E000E4EC0108F8EC010801ED01080BED01081D
:1035F00014ED010822ED01082CED010839ED010858
:103600008EED010846ED010854ED010864ED010856
:1036100075ED010885ED0108F7B5A94C23786B2BF2
:10362000264600F00A8130D8632B00F0968019D826
:10363000362B00F051820ED8232B00F0488203D89D
:10364000212B40F0568239E2242B00F02B82252BCF
:1036500040F04F822AE2612B5FD069D8532B40F0B3
:103660004882D2E1662B00F0AD8005D8642B7ED075
:10367000652B40F03E829AE0682B00F0C980C0F0D4
:10368000B280692B40F0358229E0722B00F0738103
:1036900010D86E2B00F05D8106D86C2B00F03A81BB
:1036A0006D2B40F0268214E2702B00F0568100F260
:1036B0005B8150E1752B00F0BB8106D8732B00F0C5
:1036C0006D81742B40F01582A9E1792B00F0E38124
:1036D0007A2B00F0E281762B40F00B82CBE1794C23
:1036E0002068FFF7B9FE6068FFF7B6FEA068764C69
:1036F000FFF7B2FE2068FFF7AFFE6068FFF7ACFE91
:10370000A068FFF7A9FE0020FFF78EFE0020FFF75C
:103710008BFE0020FFF788FE71E10020FFF7AEFE70
:103720000120FFF7ABFE694B1868FFF795FE17E124
:103730000320FFF7A3FE0420FFF7A0FE0620FFF7FB
:103740009DFE0720FFF79AFE6148006808F0EAF93D
:103750000B46022102460091AFE00220FFF78EFEE9
:103760000520FFF78BFE5B4A5B48117826E00820B6
:10377000FFF784FE5949D1F8F800FFF76DFE584B6A
:103780001868FFF751FE574A1068FFF74DFE56487C
:103790000068FFF749FE55490868FFF745FE544B9E
:1037A0001868FFF759FE0920FFF768FED8E0514876
:1037B0000068FFF751FE504A474811680A2201F09D
:1037C00060FF86E14D4D4E4C2868FFF745FE04F141
:1037D000200554F8040FFFF73FFEAC42F9D1022058
:1037E000FFF72EFE80E1474C04F1200554F8040F4A
:1037F00008F098F902460B4637480621009101F07F
:10380000F3FF2C21344801F097FEAC42EED16BE17E
:103810003D4C04F1200554F8040F08F083F90246EA
:1038200006200B4600902C4801F0DEFF2C212A4890
:1038300001F082FEAC42EED156E1344E344F306896
:1038400008F070F9062502460B462348009501F062
:10385000CBFFFFF7D7FD386808F064F902460B4646
:103860001D48009501F0C0FFFFF7CCFD706808F01F
:1038700059F902460B461848009501F0B5FFFFF7CD
:10388000C1FD786808F04EF902460B4612480095D3
:1038900001F0AAFFFFF7B6FDB06808F043F9024651
:1038A0000B460D48009501F09FFFFFF7ABFDB86890
:1038B00008F038F9009502460B46074804E100BFBE
:1038C000640C0020742A002064290020340C00209D
:1038D0008429002058280020602E0020E82B00209A
:1038E0002C0C0020240C00204C0C0020600C00202C
:1038F000000C0020E82D002070290020402B002023
:1039000054260020A02D0020B02B0020EC29002000
:10391000242E00207A4C7B4DFDF7AAF826682878E3
:1039200096FBF0F0FFF780FD2B786168002691FB95
:10393000F3F02660FFF778FDA26895F800C0666096
:1039400092FBFCF170480A2201F09BFEA6602E70EB
:10395000CFE0032002E0042000E00D20FFF770FD1F
:10396000694801F0F3FDB4E0684A674811680A222B
:1039700001F04CFEADE0664C2068FFF76DFD60681D
:10398000FFF76AFDFFF71AFB08F0CCF802460B467A
:103990005D480221009101F02CFFAAE05D4B5C4CD8
:1039A0001878FFF735FD2068FFF756FD60685A4C20
:1039B000FFF752FDFFF702FBFFF74EFDFDF7B0FDED
:1039C000FFF74AFD2078FFF72FFD002453482058C9
:1039D0000434FFF729FD202CF8D10024504AA058C8
:1039E0000434FFF721FD102CF8D10420FFF728FD47
:1039F0000020FFF719FD4B490878FFF709FD424801
:103A000003B0BDE8F04001F0A1BD0024444BE058F4
:103A10000434FFF709FD102CF8D1042043E0002402
:103A20003E4820580434FFF7FFFC202CF8D1E6E78D
:103A30003D493E4C0878FFF7EBFC20683C4CFFF713
:103A4000F3FC6068FFF7F0FC3A4A1068FFF7ECFC03
:103A50002068FFF7E9FC38480068FFF7FDFC374BAA
:103A60001868FFF7E1FC36490868FFF7DDFC354AC6
:103A7000254811681CE00C20FFF700FD0B20FFF724
:103A8000FDFC58250D20FFF7F9FC25701E4801F0BC
:103A90005DFD25702DE00B2005E0FDF741FDFFF7F2
:103AA000DBFC03E00320FFF7CBFCA8E7164800216E
:103AB0000A2203B0BDE8F04001F0E3BD012300930A
:103AC0000DA3D3E90023104801F093FE01E0FFF7B6
:103AD0000BFD582020700CE00024114AA05804343B
:103AE000FFF7A2FC102CF8D1074801F02FFD582158
:103AF000317003B0F0BD00BF000000A099990940EB
:103B0000A829002048290020602E0020CC2D00206C
:103B10008C2A00203C260020082A0020C4290020EE
:103B20002C280020280C002054260020102A0020D9
:103B30003429002060280020702A002088290020D5
:103B400044290020A02A002010B533484FF46141D9
:103B500002F0CAF84620002102F060FB4620002156
:103B600002F0B2FBFEF742FF4FF48A70FEF70CFE44
:103B7000DFED2A7A07EE100AB4EE677AF1EE10FA5A
:103B800005D0FEF757FE0124FFF700F800E00024FF
:103B9000FDF720F80420FDF765FC0820FDF794FBF5
:103BA000FFF7E2F9FCF780FEFCF72CFF0028FBD0C2
:103BB000FCF75CFF1CB1FCF7ABFFFEF7E7FFFCF77F
:103BC0001BFDFFF7E7F8164B4FF07B51D966C3F8A2
:103BD0008810FDF753FAFDF77DFE1248046844F0A3
:103BE00020020260FEF70AF8FCF798FB0E49086015
:103BF0004620012102F068FB0C4B0D4800241C708C
:103C0000214622466223FDF715FF0948214662221C
:103C1000BDE81040FDF7C2BE602E0020CDCC4C4068
:103C2000E82B0020CC2D002074290020D02D00206E
:103C30008C2900202DE9F0436E4B6F4C18682268E8
:103C40006E4F6F4E6F4D111A00EE101ADFED6E7A47
:103C5000B8EE407A2DED048BC7EE277A85B01A6056
:103C60000024C7ED007AFCF783FEFCF723FF674AC8
:103C700056F8040F6301D118FCF76CFC0134032CD7
:103C800045F8040FF3D1624C624BD4F80480CDF8B0
:103C90000080A168DFF8A881019138680290596816
:103CA0009A6818682368FDF727FA94ED006AFDEE1C
:103CB000C65A98ED009A15EE900A00F0C5FC94EDF6
:103CC000015AFDEEC54A074614EE900A00F0BCFC0E
:103CD00094ED028ABDEEC84A3E1814EE100A00F0B8
:103CE000B3FC351803EE905AB8EEE33AF7EE008ACB
:103CF00013EE100A00F090FC02EE900AB0EE682A73
:103D000009EE622A444F454E454D464A297897EDC3
:103D1000021A18EE021AD6ED001A71EE610A9146E7
:103D2000C2ED000A89BB94ED002AFDEEC21A98ED9F
:103D3000009A11EE900A00F087FC94ED011ABDEE96
:103D4000C18A804618EE100A00F07EFC94ED028ACB
:103D5000FDEEC80A804410EE900A00F075FC08EBF6
:103D6000000300EE103AB8EEC07A17EE100A00F029
:103D700053FC07EE900A49EE678AD7ED026A58EEC7
:103D8000286A0122C6ED006A2A702749274A284B73
:103D900099ED005A91ED006A92ED004A75EE065ACF
:103DA000D3ED004A25EE844A05EE244A81ED004A0F
:103DB000FDF700FF1F4B03EE900A93ED003AF8EE7B
:103DC000E37A1D4877EEC32AC0ED007AF5EEC02AEB
:103DD000F1EE10FA01DD012101E002D500211748C2
:103DE0000170C3ED007A05B0BDEC048BBDE8F04373
:103DF000FEF756BCDC2D0020E02D0020700C0020CA
:103E00006C2D00206029002000247449B42A002071
:103E100064290020742A0020242E00201428002069
:103E2000F825002064280020342B002008280020DA
:103E3000500C0020502A002010280020702B002059
:103E4000482B0020094B0A4A19681268501A00EEE4
:103E5000100ADFED087AB8EE407A07491A60C7EE1B
:103E6000277AC1ED007AFFF749B800BF042A002085
:103E7000E02D002000247449700C002010B5274C60
:103E8000FDF7C4FE264B226826491A6063680B6062
:103E900025490AB10A6001E00A682260234A0BB191
:103EA000136001E0106860602068FDF7F5FE03EE26
:103EB000900ABDEEE33A606884ED003AFDF71CFF1E
:103EC00022681B4902EE900A02EE102A19481A4A8B
:103ED000B8EEC21AD0ED001A71EE616AFDEEE20A88
:103EE000F5EEC06AF1EE10FACCBF002301230B609F
:103EF000124BF8EEE07A93ED000A37EEC07AC4ED8B
:103F0000010AB5EEC07AF1EE10FACCBF0021012112
:103F100080ED001A1160C3ED007A10BD3429002035
:103F200060280020102A002038260020882A00203F
:103F3000002A002054280020D42D00204C280020E6
:103F400008B50B4A0B4B126819681A60501A00EE3C
:103F5000100ADFED097AB8EE407A0849C7EE277AF1
:103F6000C1ED007AFFF7AEF8BDE80840FFF754BB9B
:103F7000E02D0020902B002000247449700C0020BC
:103F8000084B094A19681268501A00EE100ADFED52
:103F9000077AB8EE407A06491A60C7EE277AC1ED73
:103FA000007A7047982A0020E02D002000247449F0
:103FB000700C002070B5204C204D214EFCF7AEF95E
:103FC00021682860401A3060FCF770FE326842F2C7
:103FD0000F739A4226461B4C27D92068431C236046
:103FE000FFF728FE2268D00701D4FFF72BFF2268D5
:103FF0000A23B2FBF3F003FB102111B9FFF73EFFD8
:1040000011E0114B2A681968104BC1EB020C9C455A
:1040100002D9FFF795FF06E00D480168501A984253
:1040200001D9FFF7ADFF2A6832602368632B02D9FC
:1040300004480021016070BD74290020E02D00209B
:10404000782900209C2A0020902B0020A0860100C7
:10405000982A002008B5FFF777FDFFF7ABFFFCE7D4
:1040600009490A4891ED000AB7EE007A77EE407AE6
:1040700008B50421C0ED007A0548FCF7DFFAFCF72B
:104080004DF9044B186008BD500C00200828002092
:10409000A82A0020582A002010B50C888368A4B2F2
:1040A0004FF6FF7084420B4408D008881FFA80FC4A
:1040B000944508D102E00A68013206D104319942E0
:1040C000F9D3002010BD832010BD832010BD38B56A
:1040D0000B889BB2581E0C464FF6FD7281B291427E
:1040E00003D84EF6EE65AB4203D16288511C8DB207
:1040F00000E000252046FCF7B7F8052805D1A01CF4
:104100002946BDE83840FCF7C3B838BD70B5054650
:104110000C461646FFF7C0FF60B128462146FFF760
:10412000D6FF052806D1284621463246BDE8704014
:10413000FFF7B2BF70BD036842681988108889B262
:1041400010B580B219B94FF6FF74A04207D040B93C
:104150004FF6FF7399420CBF1046002010BD184661
:1041600010BD002010BD70B5856800204D190631C6
:1041700013E00C884FF6FF73A4B29C420CD094421B
:104180000AD00B1D04E01E88B6B2A64204D0043348
:10419000AB42F8D3013080B20431A942E9D370BDFB
:1041A0002DE9F74F9B46836805460C46164601EB02
:1041B000030A0F1D03E03A68013203D00437574564
:1041C000F9D344E0301DA3F102080190B04427E088
:1041D000B8F800104FF6FF731FFA81F999451DD00A
:1041E000D9451BD0A31D05E01A881FFA82FCCC45D7
:1041F00014D00433BB42F7D327E038F8023C3846EA
:1042000099B2FCF745F8052805D1B81C4946FCF7DA
:104210003FF8052801D0054614E00437A8F104084A
:1042200001988045D4D8284631464FF6FF72FFF7F3
:104230006DFF054630B929462046FCF729F80528C8
:1042400018BF05462846BDE8FE8F5745D5D38125C2
:10425000F8E72DE9F04705460E461746FFF76BFFD6
:104260000446002866D0AB6800EB0309A9F10203FD
:1042700014E0188882B2B2420FD133F8021C981EA3
:104280008BB2BB4259D04FF6FF7C634508D139460B
:10429000FBF7FEFF052803D14FE0043BA342E8D81B
:1042A00004F1040815E0D8F8003001330FD140467E
:1042B0003946FBF7EDFF052843D108F102003146EE
:1042C000FBF7E6FF052808BF0020BDE8F08708F1EE
:1042D0000408C845E7D3214632462846FFF743FF86
:1042E000AB68421C990892B2481E824228D2D5F887
:1042F0000480444508BFD5F800804EF6EE61404684
:10430000FBF7C6FF05281CD108F104003946FBF76E
:10431000BFFF052815D108F106003146FBF7B8FFAD
:1043200005280ED12846414622463346BDE8F047CF
:10433000FFF736BFAB20BDE8F0870020BDE8F0876F
:104340008120BDE8F08700000449054A4FF4804C05
:1043500080E8061084228281704700BF0080000838
:1043600000C0000810B50446FBF7BEFF21682046D8
:104370000022FFF7CBFE0146B0B92068B0F800C0BC
:104380004FF6FF731FFA8CF29A4205D1FBF780FFBC
:10439000052801D0014607E0616820464FF6FF720C
:1043A000BDE81040FFF7B2BE084610BDF8B50446A0
:1043B000FBF79AFFAB202268A08117886668BFB21E
:1043C00033884EF6EE618F429BB21CD04FF6FF75DC
:1043D000AF4202D0002F31D039E013B92046114648
:1043E00009E08B4209D100213046FBF751FF052837
:1043F0003ED1216820463A4638E0BB4239D12046BA
:10440000FFF7B0FF34E02BB91146204632464FF695
:10441000FF7319E04FF6FF7293422AD120463146CE
:104420001A46FFF773FE0546A08110BB2068294697
:10443000FBF72EFF05281BD1A5811AE0CBB18B42DB
:104440002046314611D12B46FFF7AAFE10E013B9E2
:104450002046114609E08B420BD100213046FBF784
:1044600017FF052804D1216820462A46FFF74EFE93
:10447000A081A089F8BD70B50D464FF0FF311180C5
:104480008389842B0446164604D1FFF78FFF08B1B9
:10449000A08970BD2046FFF74EFEA0B1A3689A1E0A
:1044A000131806300BE0B3F800C01FFA8CF1A942D4
:1044B00004D133F8020C3080002070BD043B8342ED
:1044C000F1D2822070BDAB2070BD07B50DF10602A0
:1044D000FFF7D1FFBDF806000EBD8389842B70B5B0
:1044E00004460D46164604D1FFF760FF08B1A089C7
:1044F00070BD4FF6FF70854206D0204629463246F1
:10450000BDE87040FFF7A5BE822070BD0148FFF7EF
:104510001BBF00BF302E0020014802F05CB800BF76
:10452000942E002002F03EB8034610B506480C4613
:10453000194601F0DEFF04482146FFF7F3FF024869
:10454000BDE8104002F06CB8942E0020FFF7E4BFE5
:1045500010B5FFF7E1FF0446FFF7DEFF40EA042055
:1045600010BD07EE102AF7EE006AB4EE667AF1EE9F
:1045700010FA07EE900A06EE101A07D076EEC76A18
:1045800066EE266A47EE876AF0EE667A17EE900AC4
:104590007047F0B510E05C1C50F8237050F82460B0
:1045A000B74204DD40F8247040F823600025E3B2F0
:1045B0004C1EA342EFDB15B900230125F8E705687F
:1045C00050F82430EB1A002BB8BF5B42136001EBAC
:1045D000D172511050F82100F0BD07EE100AB5EE6F
:1045E000C07AF1EE10FA07EE901A04DDF5EEC07A0B
:1045F000F1EE10FA0CD4B5EEC07AF1EE10FA09D54E
:10460000F5EEC07AF1EE10FAD4BF00200120704719
:1046100001207047002070470A49A1EB600300EEBB
:10462000103A00EE900A20EE806AF0EE087A46EE2C
:10463000407AB6EE001A60EE016A26EEA77A17EE0F
:10464000100A7047DF59375F4043704707292FD85A
:10465000DFE801F004090F14191E232903689A6882
:1046600042F03D0203E00368986840F474629A6087
:1046700070470368996841F47412F8E703689A6810
:1046800042F07462F3E70368D86840F03D0208E046
:104690000368D96841F4746203E00368DA6842F49D
:1046A0007412DA6070470368D96841F07460D860AA
:1046B000704738B54B1C50F8333005460C4633B1C3
:1046C000984728462146BDE83840FFF7BFBF38BDB0
:1046D000024B00211868FFF7ECBF00BF040D00205B
:1046E000024B01211868FFF7E4BF00BF040D002052
:1046F000024B02211868FFF7DCBF00BF040D002049
:10470000024B03211868FFF7D4BF00BF040D00203F
:10471000024B04211868FFF7CCBF00BF040D002036
:10472000024B05211868FFF7C4BF00BF040D00202D
:10473000024B06211868FFF7BCBF00BF040D002024
:10474000024B07211868FFF7B4BF00BF040D00201B
:10475000024B00211868FFF7ACBF00BF080D002016
:10476000024B01211868FFF7A4BF00BF080D00200D
:10477000024B02211868FFF79CBF00BF080D002004
:10478000024B03211868FFF794BF00BF080D0020FB
:10479000024B04211868FFF78CBF00BF080D0020F2
:1047A000024B05211868FFF784BF00BF080D0020E9
:1047B000024B06211868FFF77CBF00BF080D0020E0
:1047C000024B07211868FFF774BF00BF080D0020D7
:1047D000024B586100BF00BF704700BF003C014062
:1047E000064B10B553F83030044633B198470120DA
:1047F000A040BDE81040FFF7EBBF10BD0C0D00203E
:104800000E4B2DE9F0410D465C69064600270EE08F
:104810004FF0010000FA06F818EA040F06D0084924
:1048200051F8363013B1984747EA08070136AE42CF
:10483000EED93846BDE8F041FFF7CABF003C014061
:104840000C0D00200020FFF7CBBF0120FFF7C8BFF1
:104850000220FFF7C5BF0320FFF7C2BF0420FFF708
:10486000BFBF05200921FFF7CBBF0A200F21FFF7AB
:10487000C7BF10B50446007900F008FA2079BDE8FA
:10488000104000F0E7B9000008B50B48FFF7F1FF52
:104890000A48FFF7EEFF0A48FFF7EBFF0948FFF76A
:1048A000E8FF0948FFF7E5FF0848FFF7E2FF08487F
:1048B000BDE80840FFF7DDBF8C0D0020940D0020FF
:1048C0009C0D0020A40D0020AC0D0020B40D002094
:1048D000BC0D0020036870B54800032616FA00F4EA
:1048E0001D68E44302F0030604EA050C16FA00F51D
:1048F0004CEA0506950805F0030585401E60DE6854
:1049000004EA060C45EA0C051609DD6006F003060C
:104910009D6816FA00F0920904EA050C02F0010401
:1049200014FA01F2012414FA01F140EA0C00986033
:10493000586820EA010042EA0001596070BD03682E
:10494000C80801F0070130B589000F248C4002F03F
:104950000F0212FA01F1083053F8205025EA04043E
:104960000C4343F8204030BD036819617047036869
:104970001A6812F4985FFBD1196841F480701860CE
:10498000704703681A6812F4985FFBD1196841F404
:10499000007018601A6812F4985FFBD170470368C2
:1049A000586841EA00025A6070470368586820EA74
:1049B00001025A6070470368186820F480621A6028
:1049C00070470000014B1868704700BFD02F0020CF
:1049D000016810B58A69044602F47063002283619D
:1049E0004A618A61FFF7CDFF20464FF4E061FFF78F
:1049F000DCFFFF23637310BDF8B5036805695F69C9
:104A00000446AE789B69FFF7DDFF6061F80706F0AA
:104A1000010613D50020E8804FF480612046FFF79F
:104A2000BEFF26B121680F6847F480620A60B5F8BE
:104A300000C0236846EA4C0018610027B9071ED55C
:104A4000AB8876B1012B17D12046FFF7B4FFE2897E
:104A50002046012A02D9FFF78AFF0DE0FFF791FFF8
:104A60000AE0012B0AD0E888A968471C095CEF809E
:104A70002046FFF779FF01E0002700E0374607F006
:104A8000840EBEF1800F1BD1E789AFB1EF88A86813
:104A90007A1CC15DEA802046FFF766FFB5F806C0C4
:104AA000AB889C450BD14FF480612046FFF77DFF1A
:104AB000E389591EE18102E000F0CAFC00E0002712
:104AC00007F08402842A17D1E689204656B1FFF701
:104AD0004EFF23685F69FA07FCD5206900270C3078
:104AE000206109E0FFF74DFF4FF400712046FFF70A
:104AF0005CFF0221617337467B0627D52368E8886F
:104B00001969AA68431C1154AA889BB2501E83429B
:104B1000EB800ED12046FFF74EFFE18920460229A7
:104B200003D9BDE8F840FFF722BFBDE8F840FFF722
:104B300028BF93420AD1E3895A1E90B2E08110B98E
:104B400002216173F8BD20690C302061F8BD0000BE
:104B50000148FFF751BF00BFC40D00200148FFF717
:104B60004BBF00BFE00D00200148FFF731BF00BF81
:104B7000C40D00200148FFF72BBF00BFE00D00204F
:104B800001EBC001880000F184431A607047000007
:104B9000244B186840F480321A604FF4A063214A15
:104BA0001168890301D4013BF9D112681D4B9203AE
:104BB00036D51A6CDFF888C042F080501A4A186463
:104BC000116841F48040106099689960986840F4D9
:104BD00000429A609968154A41F4A05098601449BF
:104BE000144882E80310144A5A60196841F0807032
:104BF00018600C4B19688801FBD5104A40F205611A
:104C00001160986820F0030199609A6842F00200F0
:104C100098600448836803F00C0CBCF1080FF8D1CD
:104C2000704700BF0038024000700040402E002056
:104C300000BD010580DE800208544007003C0240B0
:104C4000007A030AFFF7A4BF014B13F81000704766
:104C5000C0ED010838B50446FFF7F6FF094B0A49D5
:104C600003EB440451F82050647828462146012281
:104C7000FFF786FF284621460022BDE83840FFF7AF
:104C80007FBF00BFC0ED010818EE010810B5044653
:104C9000FFF7DAFF0549064A01EB440352F820000A
:104CA00059780122BDE81040FFF76ABFC0ED010846
:104CB000ACED010808B5FFF7C7FF024B53F8200021
:104CC00008BD00BF402E002008B5FFF7F3FF4000ED
:104CD00008BD7047014B07221A60704710E000E0E2
:104CE000014B5860FFF7F6BF10E000E008B572B660
:104CF0000548064B1B6801684A1C026062B6044BFB
:104D00001B6803B1984708BDD02F002010E000E0D9
:104D1000502E0020002807DB421100F01F01012067
:104D20008840024B43F82200704700BF00E100E0DA
:104D300070B54E1E6FF0070501F00101694308319F
:104D4000C9B2FF258D40134313FA01F100687410B6
:104D5000183004F0010450F8246026EA05050D43DC
:104D600040F8245070BD023138B550F82130154656
:104D7000046823B19847236923EA0505256138BDF6
:104D800007218022FFF7EFBF00210122FFF7EBBFD1
:104D9000F8B505680646EB682F691F4017F0400418
:104DA00003D0046A0CB1A0474024BB0604D5F369C4
:104DB00013B1984744F02004286920EA04042C61C8
:104DC000F8BDF8B507680546FB683E691E4016F059
:104DD000100403D084690CB1A0471024300704D517
:104DE0006B6913B1984744F00804710704D52B6927
:104DF00013B1984744F00404B20704D5EB6813B12B
:104E0000984744F00204386920EA04043C61F8BD84
:104E1000F8B507680546FB683E691E4016F0400479
:104E200003D0046A0CB1A0474024F30604D5AB6953
:104E300013B1984744F01004300704D56B6913B1DF
:104E4000984744F00804710704D52B6913B19847BB
:104E500044F00404B20704D5EB6813B1984744F05A
:104E60000204F30704D5AB6813B1984744F001047A
:104E7000386920EA04043C61F8BD00210122FFF7F3
:104E800072BF01EBC001880000F18440704708B593
:104E900000680C30FFF7F5FF0023036008BD08B57C
:104EA0000068013920308900FFF7EBFF0123036020
:104EB00008BD10B504460079FFF7E8FE2079BDE88B
:104EC0001040FFF7C7BE00000D4A10B50446106839
:104ED000A0470C490868A0470B480068A0470B4B47
:104EE0001868A0470A4A1068A0470A490868A047FE
:104EF00009480068A047094B1868A04710BD00BFCB
:104F0000A80E0020AC0E0020B00E0020B40E002031
:104F1000B80E0020BC0E0020C00E0020C40E0020E1
:104F200038B58B1C044640F8232000680D460C3031
:104F3000FFF7A7FF6379012101602079002B23D1BE
:104F4000A0F10A02504240EB0200072D3ED8DFE8F4
:104F500005F0040909090911111600280CBF2C20BD
:104F6000192003E000280CBF2E201B20BDE838408C
:104F7000FFF7D0BE00280CBF2D201A20F6E700282E
:104F80000CBF2B201820F1E70B38112816D8DFE8CA
:104F900000F0090B0D151515151515151515151519
:104FA000150F11131C20E1E71D20DFE71E20DDE7B0
:104FB0003220DBE73620D9E73720D7E70448054A17
:104FC00040F2DD11BDE8384000F00CBA38BD00BF3A
:104FD0002CEE010863EE010838B50D460446023593
:104FE000FFF755FF002344F8253038BD70B504465F
:104FF000481EC3B2032B0D46164604D91C48AD21EA
:105000001C4A00F0EFF96179022904D11848B02157
:10501000194A00F0E7F96279022A27D0012E10D050
:1050200002D3022E22D115E020462946FFF7D4FFF5
:105030002068691E20308900FFF723FF00230360EA
:1050400070BD20462946FFF722FF204629466022F0
:10505000082303E02046294610220023FFF768FEBC
:1050600020462946BDE87040FFF719BF70BD00BF5C
:105070002CEE010865EE010881EE0108014B18686D
:10508000FFF77EBEA80E0020014B1868FFF77CBE1C
:10509000A80E0020014B1868FFF77ABEA80E00206A
:1050A000014B1868FFF78DBEA80E0020014B186851
:1050B000FFF7AEBEAC0E0020014B1868FFF7A8BE8C
:1050C000B00E0020014B1868FFF7A2BEB40E0020FE
:1050D000014B1868FFF79CBEB80E0020014B186802
:1050E000FFF7CBBEBC0E0020014B1868FFF7C5BE12
:1050F000C00E0020014B1868FFF742BEC40E00200E
:10510000014B1868FFF740BEC40E0020014B186821
:10511000FFF73EBEC40E0020014B1868FFF751BEDA
:10512000C40E0020C38881889AB28BB2C188B0F8BF
:1051300004C0D31A89B21FFA8CF2914203D20189BA
:105140008AB2501C1B1898B27047C2888388511CC1
:10515000994207D00089904206D1D3F1010038BFAF
:10516000002070470120704700207047C388026804
:10517000D154C38802899A4201D0013300E0002350
:10518000C380704703468288198900689142805C19
:1051900001D0013200E000229A8070470022FF23F4
:1051A0008280C280038101607047420102F1844025
:1051B000C161704710B5044604F120010430FFF7C7
:1051C000EDFF04F1100004F59071FFF7E7FF94F88C
:1051D0002002FFF75BFD94F821325AB2002A08DB67
:1051E000012103F01F0011FA00F30249521141F8A6
:1051F000223010BD00E100E038B5044690F82002EE
:105200000D46FFF757FD19214143A800B1FBF0F20D
:105210006420B2FBF0F529010D0900FB15231A01EA
:105220003232B2FBF0F303F00F0242EA01002368CE
:1052300081B2996038BD03682C21D960D86840F4E8
:105240000052DA607047006801210C30FFF7ADBFF3
:10525000006800210C30FFF7A8BF37B5036804468B
:1052600019680191019A920610D55D68041D2046C7
:10527000EDB2FFF76AFF10B12046FFF783FF20462B
:10528000294603B0BDE83040FFF770BF019B1B0605
:1052900010D500F110052846FFF744FF28B1284635
:1052A0002468FFF76FFF606004E02046FFF7D0FF3F
:1052B00000BF00BF03B030BD2DE9F84304460D46E2
:1052C00017460026BE4210D004F11008404615F8DB
:1052D0000690FFF73AFF40B940464946FFF746FFC0
:1052E0002046FFF7B0FF0136ECE73046BDE8F88313
:1052F00030B5054685B000240A20B1FBF0F300FB71
:10530000131230320DF8042019460134002BF3D16A
:105310000BE01DF804108DF80F1028460DF10F0159
:105320000122FFF7C9FF0028F7D014F1FF34F0D2B3
:1053300005B030BD014B1868FFF78FBF3811002052
:10534000014B1868FFF789BF3C110020014B18681A
:10535000FFF783BF40110020014B1868FFF77DBFA6
:10536000D4190020014B1868FFF777BFD819002027
:1053700013B504468DF8071020460DF107010122F0
:10538000FFF79AFF0028F7D01CBD38B505460C463C
:1053900002E02846FFF7ECFF14F8011B0029F8D1C2
:1053A00038BD202309B10383704743837047000051
:1053B00038B5054662B6094C09492068FFF7E5FF94
:1053C00020682946FFF794FF20680A21FFF7D0FFE5
:1053D00020680D21FFF7CCFFFEE700BF3C11002045
:1053E0009AEE0108F8B5164E05460C4630684FF4A3
:1053F000E1311746FFF700FF30681249FFF7C5FF9C
:1054000030683946FFF7C1FF30680F49FFF7BDFF2D
:1054100030682946FFF7B9FF30680C49FFF7B5FF40
:1054200030682146FFF764FF30680A21FFF7A0FFCC
:1054300030680D21FFF79CFF4FF0FF30FFF7B8FFFA
:105440003C110020A8EE0108BEEE0108BFEE0108E5
:10545000F8B5114B05211C6821222046FFF73AFAC6
:1054600000252E460127B6F5006F03D0002E08BF99
:10547000012701E04FF0FF37B5F5006F04BFF619C3
:105480000025B542206801D2012100E00021FFF78C
:1054900088FF0135E7E700BFA8ED01080000000024
:1054A000012007E0022005E0032003E0042001E0E2
:1054B0000520FFE7FEE70D4A0121116072B60C4A94
:1054C00000211160064902B4074902B486B00549BB
:1054D0008E467047AFF30080AFF30080AFF30080DB
:1054E00000000061F9FFFFFFB153010814ED00E077
:1054F00010E000E0AFF30080AFF30080AFF3008076
:1055000038B505460C4603E02868036828469847E6
:1055100014F8011B0029F7D138BD70B504461546B3
:105520000E4605E0206816F8011B036820469847E0
:1055300015F1FF35F6D270BD026808B513689847BB
:1055400008BD026808B55368984708BD10B50D211D
:105550000446FFF7F1FF20460A21BDE81040FFF79F
:10556000EBBF10B50446FFF7ECFF2046BDE8104046
:10557000FFF7ECBF2DE9F04716461F4690B056EAFC
:10558000070282469DF8609005D1302110B0BDE839
:10559000F047FFF7D1BF00245FFA89F54FF000080C
:1055A000304639462A46434606F0C6FF30460DF8D7
:1055B0000420394643462A4606F0BEFF06460F46FB
:1055C000013456EA0703E7D10DE010AA131913F8C6
:1055D000411C092901D8303100E03731C9B25046A9
:1055E000FFF7AAFF013C002CEFD110B0BDE8F08717
:1055F00070B5049C24B901680B68D1B2984770BD9E
:10560000E4B20494BDE87040FFF7B4BF13B50023C3
:1056100000920A460446FFF7EBFF204602B0BDE8C1
:105620001040FFF793BF07B500230092CAB2FFF7FF
:10563000DFFF0EBD2DE9F041069F064614461D46CC
:105640002FB901680B68D1B29847BDE8F081002CF2
:1056500075F1000305DA2D21FFF76EFF644265EB5B
:105660004505FFB2304622462B460697BDE8F0417D
:10567000FFF780BF07B5CB1700920A46FFF7DAFFA6
:105680000EBD10B50446FFF7F5FF2046BDE81040FB
:10569000FFF75CBF000000002DE9F34D19460746F7
:1056A000164610461C460022002306F01FFD9DF8FA
:1056B0002880012538B13046214643A3D3E9002391
:1056C00006F00AFD06E03046214641A3D3E9002357
:1056D00006F0F8FC00B90546EDB23046214600223E
:1056E00000236DB106F0E4FC18B138462D21FFF718
:1056F00023FF3949384602B0BDE8F04DFFF721BF1E
:1057000006F0D6FC28B138462D21FFF715FF04F12D
:10571000004400250022314B09E0104619460022C2
:105720002F4B06F07DFB013502460B46EDB2454599
:10573000F3D12146304606F097F882468B4606F0B4
:1057400011FF04460D4606F013FA02460B4650467A
:10575000594606F087F80A238246009338462246C7
:105760002B468B46FFF766FFB8F1000F1FD0384677
:105770001C49FFF7E6FE1AE0194B00225046594635
:1057800006F024FA8B46824606F0BAFC04460A224A
:1057900038462146FFF76EFF204606F0B1F9024673
:1057A0000B465046594606F05DF882468B4608F196
:1057B000FF305FFA80F8B8F1FF0FDDD102B0BDE82D
:1057C000F08D00BFAFF30080800350726C92DF4316
:1057D000800350726C92DFC3E0EE01080000E03FEE
:1057E00000002440EFEE01089DF800100091FFF743
:1057F00053BF13B5049904460091FFF7F5FF204607
:1058000002B0BDE81040FFF7A1BE01EBC001880067
:1058100000F18440704770B5044600F0F4FF204664
:105820004FF4602100F0FCFF266814210836304652
:10583000FFF7EBFF0125002105603046FFF7E5FF8C
:105840000560204601F01AF820460521BDE87040A9
:1058500001F000B8F8B506460468FFF72AFB356882
:1058600000212846FFF7D1FF002380220360226039
:105870000122A2622361E3607379626113B19342F2
:105880002BD102E04FF4004060644FF6FF71E962F3
:105890000022012303F001006FF00706704305F1B9
:1058A000340148F6FF74083041F82240C0B2FF24AA
:1058B00014FA00F6571005F118015FFA87FC51F849
:1058C0002C70013327EA0606682717FA00F4013224
:1058D0003443052B41F82C40DCD128460021FFF74A
:1058E00094FF01230360F8BD08B54FF4E0120220D5
:1058F0004FF48031FFF7A6F900200146FFF7E9F9E0
:1059000001204FF48061FFF7E4F902200021FFF746
:10591000E0F900210B4800F0DFFF0B48FFF7E0F94A
:10592000FEF7B2FF2A20FFF7B1F900F013F800F0FC
:10593000A7FF064800F07CFF0548BDE80840FFF7D8
:10594000C3BA00BF000001083F90020017580108C9
:105950005558010870B53A4C0F2125680122284698
:10596000FEF7EDFF374A0321146801222046FEF7B7
:10597000E6FF354902220E680C213046FEF7DFFFB4
:1059800030460D210222FEF7DAFF30460E210222B8
:10599000FEF7D5FF30460F210222FEF7D0FF2B483D
:1059A0000921066801223046FEF7C9FF30460B2167
:1059B0000122FEF7C4FF30460D210122FEF7BFFF92
:1059C00030460E210122FEF7BAFF214B03221E684A
:1059D00006213046FEF7B3FF072130460322FEF7CB
:1059E000AEFF304608210322FEF7A9FF3046092109
:1059F0000322FEF7A4FF204604210222FEF79FFFA8
:105A0000204605210222FEF79AFF204600210222AD
:105A1000FEF795FF204601210222FEF790FF28465F
:105A200000210222FEF78BFF284601210222FEF709
:105A300086FF022128460A46BDE87040FEF77FBF78
:105A400098ED01089CED0108A4ED0108A8ED0108FE
:105A5000A0ED010810B5794B794C1A682068794B94
:105A600079497A4C096858605861586258632468CB
:105A700077481A6099601A6199611A6299621A638B
:105A800099631A6499641A6599651A6699661A6722
:105A90009967C3F88020C3F89020C3F8A020C3F80A
:105AA000B020C3F8C020C3F8D020C3F8E020C3F86A
:105AB000F020C3F8F4400068664AC3F80401C3F854
:105AC0001401C3F84401C3F8540163481268006824
:105AD000C3F80021C3F80811C3F81021C3F8181146
